:020000040000fa
:080000000002040000000000f2
:020000040000fa
:1000080090020000900200009002000090020000a0
:100018009002000090020000900200009002000090
:100028009002000090020000900200009002000080
:100038009002000090020000900200001c030000e3
:100048009002000090020000900200009002000060
:100058009002000090020000900200009002000050
:100068009002000090020000900200009002000040
:100078009002000090020000900200009002000030
:100088009002000090020000900200009002000020
:100098009002000090020000900200009002000010
:1000a8009002000090020000900200009002000000
:1000b80090020000900200009002000090020000f0
:1000c80090020000900200009002000090020000e0
:1000d80090020000900200009002000090020000d0
:1000e80090020000900200009002000090020000c0
:1000f80090020000900200009002000090020000b0
:10010800900200009002000090020000900200009f
:10011800900200009002000090020000900200008f
:10012800900200009002000090020000900200007f
:10013800900200009002000090020000900200006f
:10014800900200009002000090020000900200005f
:10015800900200009002000090020000900200004f
:10016800900200009002000090020000900200003f
:10017800900200009002000090020000900200002f
:10018800900200009002000090020000900200001f
:10019800900200009002000090020000900200000f
:1001a80090020000900200009002000090020000ff
:1001b80090020000900200009002000090020000ef
:1001c80090020000900200009002000090020000df
:1001d80090020000900200009002000090020000cf
:1001e80090020000900200009002000090020000bf
:0801f8009002000090020000db
:020000040000fa
:10020800900200009002000090020000900200009e
:10021800900200009002000090020000900200008e
:10022800900200009002000090020000900200007e
:100238009002000090020000900200001c030000e1
:10024800900200009002000090020000900200005e
:10025800900200009002000090020000900200004e
:10026800900200009002000090020000900200003e
:10027800900200009002000090020000900200002e
:10028800900200009002000090020000900200001e
:10029800900200009002000090020000900200000e
:1002a80090020000900200009002000090020000fe
:1002b80090020000900200009002000090020000ee
:1002c80090020000900200009002000090020000de
:1002d80090020000900200009002000090020000ce
:1002e80090020000900200009002000090020000be
:1002f80090020000900200009002000090020000ae
:10030800900200009002000090020000900200009d
:10031800900200009002000090020000900200008d
:10032800900200009002000090020000900200007d
:10033800900200009002000090020000900200006d
:10034800900200009002000090020000900200005d
:10035800900200009002000090020000900200004d
:10036800900200009002000090020000900200003d
:10037800900200009002000090020000900200002d
:10038800900200009002000090020000900200001d
:10039800900200009002000090020000900200000d
:1003a80090020000900200009002000090020000fd
:1003b80090020000900200009002000090020000ed
:1003c80090020000900200009002000090020000dd
:1003d80090020000900200009002000090020000cd
:1003e80090020000900200009002000090020000bd
:0803f8009002000090020000d9
:020000040000fa
:100400000f8020000e7f24000e01880000000000f5
:100410000c000700403520000100200011000700fb
:10042000000020000000e000020032000000020096
:10043000000000004c030200000000000040da0051
:100440000000fe004440a900000020000000e00081
:100450000300320000002000a00188004440a800f2
:100460000000060091018800800078000000eb0089
:1004700015003700e280400032a0b4009101ba00bc
:10048000e280400032a0b4009102ba00e280400055
:1004900032a0b4000002eb00472bde00f507b200eb
:1004a000602ce10004003a000059eb008301e900f0
:1004b000fdff3e00040037006128e100010032002a
:1004c0000082eb00040007001101ba000200e00006
:1004d000e8ff3a00000006003159ba008301e90044
:1004e0000c0032002159ba008301e90008003200f3
:1004f0000400e00003003a00e280400032a0b400b3
:10050000f5ff370011d9ba008301e900faff3a007c
:100510008100e800e180400032a0b4000000060045
:100520000040da000000fe000621ef0061088800ac
:0c053000800888001061a900000006008f
:020000040000fa
:10053c000000fa0090022000303a8800213a800036
:10054c00f0f32f0000806000203a8800213a8000f0
:10055c0000fe2f0000806000203a8800113a8000d5
:10056c00f08f2f0080806000003020000080700031
:10057c00103a88003200200080072000a1092000da
:10058c0033742000804978008149780082497800d2
:10059c00120020006004200071052000237420004c
:1005ac008049780081497800824978000000000079
:1005bc00113a8000000027008080600000002300ba
:1005cc00808f5000faff3a0000000000113a8000c2
:1005dc0000022000808060000000eb00808f500043
:1005ec00faff32000080fa00000006000000fa005a
:1005fc00c002a900c402a90081e0a900f1ff2900f2
:10060c00d0fb2f00c5ff070094e0a8003105800047
:10061c00f0ff280080806000000023000080700044
:10062c00300588000080fa0000000600809fbe00a4
:10063c00821f78003400f80000002000a001880020
:10064c000000fa0020168000004078006140600035
:10065c000004a200614060000080fb0061006000ab
:10066c0022168000e1ff2f008100610000807000e5
:10067c002016880084e0a9000080fa003400f900fc
:10068c004f0178004f00be00004006000000fa0049
:0c069c00a7ff0700d5ff0700ffff370095
:020000040000fa
:0406a800000000004e
:020000040000fa
:0200000401f009
:04000c00f8ff0000f9
:020000040000fa
:0200000401f009
:040010007dff000070
:020000040000fa
:0200000401f009
:04001c00dfff000002
:00000001FF
