:020000040000fa
:080000000002040000000000f2
:020000040000fa
:100400000f8020000e7f24000e01880000000000f5
:100410000c0007000032200001002000110007003e
:10042000000020000000e000020032000000020096
:1004300000000000d0020200000000000040da00ce
:100440000000fe004440a900000020000000e00081
:100450000300320000002000a00188004440a800f2
:100460000000060091018800800078000000eb0089
:1004700015003700e280400032a0b4009101ba00bc
:10048000e280400032a0b4009102ba00e280400055
:1004900032a0b4000002eb00472bde00f507b200eb
:1004a000602ce10004003a000059eb008301e900f0
:1004b000fdff3e00040037006128e100010032002a
:1004c0000082eb00040007001101ba000200e00006
:1004d000e8ff3a00000006003159ba008301e90044
:1004e0000c0032002159ba008301e90008003200f3
:1004f0000400e00003003a00e280400032a0b400b3
:10050000f5ff370011d9ba008301e900faff3a007c
:100510008100e800e180400032a0b4000000060045
:020000040000fa
:10000800cc02000090020000960200009c02000052
:10001800a2020000a8020000cc020000cc020000ee
:10002800cc020000cc020000cc020000cc02000090
:10003800cc020000cc020000cc020000cc02000080
:10004800cc020000cc020000cc020000cc02000070
:10005800cc020000cc020000cc020000cc02000060
:10006800cc020000cc020000cc020000cc02000050
:10007800cc020000cc020000cc020000cc02000040
:10008800cc020000cc020000cc020000cc02000030
:10009800cc020000cc020000cc020000cc02000020
:1000a800cc020000cc020000cc020000cc02000010
:1000b800cc020000cc020000cc020000cc02000000
:1000c800cc020000cc020000cc020000cc020000f0
:1000d800cc020000cc020000cc020000cc020000e0
:1000e800cc020000cc020000cc020000cc020000d0
:1000f800cc020000cc020000cc020000cc020000c0
:10010800cc020000cc020000cc020000cc020000af
:10011800cc020000cc020000cc020000cc0200009f
:10012800cc020000cc020000cc020000cc0200008f
:10013800cc020000cc020000cc020000cc0200007f
:10014800cc020000cc020000cc020000cc0200006f
:10015800cc020000cc020000cc020000cc0200005f
:10016800cc020000cc020000cc020000cc0200004f
:10017800cc020000cc020000cc020000cc0200003f
:10018800cc020000cc020000cc020000cc0200002f
:10019800cc020000cc020000cc020000cc0200001f
:1001a800cc020000cc020000cc020000cc0200000f
:1001b800cc020000cc020000cc020000cc020000ff
:1001c800cc020000cc020000cc020000cc020000ef
:1001d800cc020000cc020000cc020000cc020000df
:1001e800cc020000cc020000cc020000cc020000cf
:0801f800cc020000cc02000063
:020000040000fa
:10020800cc020000ae020000b4020000ba020000f6
:10021800c0020000c6020000cc020000cc020000b0
:10022800cc020000cc020000cc020000cc0200008e
:10023800cc020000cc020000cc020000cc0200007e
:10024800cc020000cc020000cc020000cc0200006e
:10025800cc020000cc020000cc020000cc0200005e
:10026800cc020000cc020000cc020000cc0200004e
:10027800cc020000cc020000cc020000cc0200003e
:10028800cc020000cc020000cc020000cc0200002e
:10029800cc020000cc020000cc020000cc0200001e
:1002a800cc020000cc020000cc020000cc0200000e
:1002b800cc020000cc020000cc020000cc020000fe
:1002c800cc020000cc020000cc020000cc020000ee
:1002d800cc020000cc020000cc020000cc020000de
:1002e800cc020000cc020000cc020000cc020000ce
:1002f800cc020000cc020000cc020000cc020000be
:10030800cc020000cc020000cc020000cc020000ad
:10031800cc020000cc020000cc020000cc0200009d
:10032800cc020000cc020000cc020000cc0200008d
:10033800cc020000cc020000cc020000cc0200007d
:10034800cc020000cc020000cc020000cc0200006d
:10035800cc020000cc020000cc020000cc0200005d
:10036800cc020000cc020000cc020000cc0200004d
:10037800cc020000cc020000cc020000cc0200003d
:10038800cc020000cc020000cc020000cc0200002d
:10039800cc020000cc020000cc020000cc0200001d
:1003a800cc020000cc020000cc020000cc0200000d
:1003b800cc020000cc020000cc020000cc020000fd
:1003c800cc020000cc020000cc020000cc020000ed
:1003d800cc020000cc020000cc020000cc020000dd
:1003e800cc020000cc020000cc020000cc020000cd
:0803f800cc020000cc02000061
:020000040000fa
:100520000000fa008020a900ffff37000000fa0059
:100530008060a900ffff37000000fa008040a9009a
:10054000ffff37000000fa008080a900ffff37009e
:100550000000fa0080a0a900ffff37000000fa00a9
:100560008020a900ffff37000000fa008060a9008a
:10057000ffff37000000fa008040a900ffff3700ae
:100580000000fa008080a900ffff37000000fa0099
:1005900080a0a900ffff37000000fa00ffff37002e
:1005a0000000fa00230007001d00070040d42100ce
:1005b000c10120000c000700c4c2bf006140600000
:1005c0000004a2006140600061416000412c2000f5
:1005d00091407800e0cfb30000c06000024070009e
:0805e000c4e2b700f1ff37008f
:020000040000fa
:1005e800f03fb1000180b10006003500ee030900bc
:1005f80000000000403fb1000180b100fbff3d005a
:100608001000b000203fb000020035000080090053
:080618000000000000000600d4
:020000040000fa
:100620000000fa00c002a900c402a9000080fa007c
:10063000000006000000fa000080fa00000006003a
:020000040000fa
:0406400000000000b6
:00000001FF
